:100000000C9454000C9400000C9400000C9400001C
:100010000C9400000C9400000C9400000C94000060
:100020000C9400000C9400000C9400000C94000050
:100030000C9400000C9400000C9400000C94000040
:100040000C9400000C9400000C9400000C94000030
:100050000C9400001027E80364000A00010000105F
:1000600000011000010000000000546865204E618E
:100070006D65204F6620476F6400456E7465722081
:1000800075736572206E616D653A006B65792069E4
:10009000733A25303264200080C0040004006600FA
:1000A0000200600298000000F894EE27ECBBF1E03B
:1000B000FBBFEBBFE5BF8DE0A2E0BB27ED938A95C8
:1000C000E9F780E098E0A0E6ED930197E9F7EAE927
:1000D000F0E085919591009761F0A591B59105901B
:1000E0001590BF01F00105900D920197E1F7FB011A
:1000F000F0CFEFE5EDBFE8E0EEBFC0E6D2E00C9454
:10010000CA00E0E0E7BBEFE0E8BBE0E1E7BBB099A5
:1001100003C0E1E0F0E00895B19903C0E4E0F0E04D
:100120000895B29903C0E7E0F0E00895B39903C0E1
:10013000EAE0F0E00895E0E2E7BBB09903C0E2E056
:10014000F0E00895B19903C0E5E0F0E00895B299B8
:1001500003C0E8E0F0E00895B39903C0E0E0F0E008
:100160000895E0E4E7BBB09903C0E3E0F0E0089550
:10017000B19903C0E6E0F0E00895B29903C0E9E068
:10018000F0E00895B39903C0EBE0F0E00895EFEFDD
:10019000F0E008956097A0E1A2D05ED0AAE6B0E0BA
:1001A0008BD0E0E0EA93A1E04AD0A8EEB3E00E9451
:1001B000960352D0AAE7B0E07FD0EFEFE1BBA1DF1A
:1001C0008F01EFEFE2BB0F3FE0E01E07B4F4FE014A
:1001D000FA93EA93EBE8F0E0FA93EA93F8010E94CD
:1001E000A8030E94B50384E00E9410032896E0E073
:1001F000EA93A0E024D0DE0150D0E1CFFFCFAA9354
:10020000EBB3EF70AE2FE881E07FEA2BEBBB82E02F
:100210008A95F1F7DA9A82E08A95F1F7DA9882E026
:100220008A95F1F787C0AA93A881E9DFE881E29572
:10023000E883A881E4DF81E18A95F1F77BC0AA9386
:10024000E881F0E0E05AFD4FE081A981AE0FEBDFDD
:100250009980888022960895A2E00E945D03ACE018
:10026000E2DFA1E00E945D03E0E08E2E9E2E089565
:10027000AA93A881AA3011F09B1448F0E0E0EA9319
:100280008394A82DDCDFA881AA3009F453C093948D
:10029000D89AA881C8DFD8984DC0BA93AA931A9368
:1002A000A981BA81ED91A983BA831E2FE03019F09C
:1002B000A12FDEDFF5CF10C0BA93AA931A93E9817C
:1002C000FA813196E983FA833197E4911E2FE03069
:1002D00019F0A12FCDDFF3CF188123960895AA93AB
:1002E000EAB3E06FEABBD29AD09AD19ADA98D8985A
:1002F000D998B880E881E058E0936202E881E05440
:10030000E0936302A4E1B0E00E9496030E946303BD
:100310000E9463030E946303A0E271DF81E28A9579
:10032000F1F7A8E280DFA4E07EDFA5E87CDFA6E0AD
:100330007ADF92DF21960895BA93AA931A930A93CB
:10034000AA81BB8112960E94AD03309759F1AA8110
:10035000BB8114960E94AD038F01309761F002308B
:10036000E0E01E0798F0F80131978F01AA81BB8168
:100370001496ED93FC93AA81BB811296ED91FD91A9
:100380003196FE93EE933197AC81A083AA81BB8115
:100390000E94AD03FF232AF0ED91FD913196FE936B
:1003A000EE9306C0AA81BB81EFEFFFEFED93FC93C4
:1003B0001981088125960895BA93AA9326970E94D9
:1003C000BA0310E0AC85BD85E0E0F0E0ED93FC936E
:1003D000EA89FB893196EA8BFB8B3197E4912E2FCA
:1003E000E03009F415C1E12FE03039F4253211F481
:1003F00011E002C00E946A030AC1E130A9F425326B
:1004000019F40E946A0302C112E040E000E02D32BC
:1004100011F401E0FCC02B3211F44BE2F8C02032A1
:1004200011F440E2F4C002C0E23039F450E013E0CD
:10043000203311F40068EBC003C0E33009F0E7C0DB
:10044000203310F02A3308F007C0AAE05A9F502D3D
:10045000E22FE0535E0FDBC0E22FE33649F40E9447
:100460007103E889F989A481AA930E947703CEC019
:10047000E33741F40E9471030E947D030E9444030C
:100480001E2F0AC0E03761F40E9471030E947D03B1
:100490000E9450031E2F086002600F7730E034C0C6
:1004A000E43611F0E93611F4046002C0E53731F4A6
:1004B000E4E5F0E0EE83FF8315E00CC0E83511F4CD
:1004C000086003C0E83709F0A1C0EEE5F0E0EE8374
:1004D000FF8314E002FF14C00E9471030E9487038F
:1004E000AB85AA233AF4EA85FB850E94A403EA8738
:1004F000FB874DE2403011F01F5F01C00B7F04C04D
:100500000E9471030E94870300FD11C0151778F443
:1005100007FF08C002FF04C00B7F242F115001C049
:1005200020E301C020E20E946A035150EFCF312F37
:1005300001FF17C03030A1F003FF06C0EE81FF813C
:100540002591EE83FF8305C0AE81BF812D91AE83DF
:10055000BF830E946A03503009F051503150EACFF6
:100560004BC020E3EE81FF810E94B103E887F98749
:10057000EE81FF813296EE83FF83E885F985AA85B7
:10058000BB85AE17BF0750F02F5FA885B985EA85F8
:10059000FB85EA1BFB0BEA87FB87EFCF2A3328F0AA
:1005A00003FF02C0295F01C0295D04FD1AC0213389
:1005B00020F4A885B985119709F409C0531710F0E4
:1005C00000FF01C013C020E207FF0BC020E3006161
:1005D00002FF07C00B7F4A930E947703503009F057
:1005E00051500E946A03503009F051503150A88593
:1005F000B985129708F0B5CF00FF08C0503031F030
:100600005150E0E2EA930E947703F8CF10E0E0CE89
:10061000AC85BD850E94AD030E94C1036496089518
:10062000FF92F82E26970E94BC030E948F033097FA
:1006300019F4EFEFFFEF23C0DE0116960E94A0032E
:100640008D010E948F03EE83FF83E0E0E887E98756
:10065000DE011A960E94A0030E94AD03FA93EA936A
:100660001A930A93ECE9F1E0FA93EA93DE011A9601
:10067000A3DE9F01AE81BF81E0E0EC93F9010E940F
:10068000C3032A96FF900895BA93AA93A991B991AA
:10069000EE27FF276D91662311F03196FBCF089569
:1006A000BA93AA93AA27BB27E991F9910590002054
:1006B00011F01196FBCFFD0108950E941301A3E0F4
:1006C000B0E00C949603A0E30E94FF0081E28A95BB
:1006D000F1F708952A93AD85BE85EF85F8890995D0
:1006E0000895E889F9893497E88BF98B0895AD85E9
:1006F000BE85EF85F88909950895A889B98914966A
:100700000E94AD03EE83FF83AE81BF810895A88967
:10071000B98914960E94AD03EA87FB870895DE012C
:100720001C960E94A0030E94AD030895109639F014
:100730008AEF90E00197F1F7A8951197C9F708950E
:100740000024AF0DB01D0895F195E195F040089596
:100750006F2F660F660B762F0895ED91FC91119720
:1007600008950590F491E02D08957A936A93FA9391
:10077000EA9308955A934A933A932A931A930A93C1
:1007800008955D814C813B812A81198108810895FA
:00000001FF
