:080000000C9439000C9400007F
:100008000C9400000C9400000C9400000C94000068
:100018000C9400000C9400000C9400000C94000058
:100028000C9400000C9400000C9400000C94000048
:100038000C9400000C9400000C9400000C94000038
:100048000C9400000C9400000C94000048656C6C43
:100058006F20776F726C6421000080C00D00600211
:10006800540002006D0262000000F894EE27ECBB19
:10007800F1E0FBBFEBBFE5BF8DE0A2E0BB27ED934E
:100088008A95E9F780E098E0A0E6ED930197E9F713
:10009800E4E6F0E085919591009761F0A591B5911E
:1000A80005901590BF01F00105900D920197E1F7B9
:1000B800FB01F0CFEFE5EDBFE8E0EEBFC0E6D2E030
:1000C8000C946600E0E0EABBEBBBE7BBE8BBE4BB33
:1000D800E5BBE1BBE2BBE3BFE2BFECBFEFBDEEBDFA
:1000E800EDBDECBDE7BDE6BDEBBDEABDE9BDE8BDD4
:1000F800E2BDE5BDE4BDE3BDE9BFE5BFE4BFEAB9E4
:10010800E0E8E8B9E0E0E0BFE6B9EDB9E6BFA8E0AD
:1001180077D0A0E6B2E063D0A8EBBBE00E943A013A
:10012800F8CFFFCFAA93E881E07111F0AB9A01C034
:10013800AB98E881E07211F0AC9A01C0AC98E88104
:10014800E07411F0AD9A01C0AD98E881E07811F043
:10015800AE9A01C0AE9882E08A95F1F7AA9A82E039
:100168008A95F1F7AA9882E08A95F1F772C0AA9366
:10017800A881D8DFE881E295E883A881D3DF81E10F
:100188008A95F1F766C0AA93E881F0E0E359FD4F3C
:10019800E081A981AE0FEBDF59804880229608954F
:1001A800A2E059D0ACE0E3DFA1E055D0E0E04E2E6C
:1001B8005E2E0895AA93A881AA3011F0571448F02A
:1001C800E0E0EA934394A42DDEDFA881AA3009F485
:1001D80040C05394A89AA881CADFA8983AC0BA9395
:1001E800AA931A93A981BA81ED91A983BA831E2F84
:1001F800E03019F0A12FDEDFF5CF1881239608959E
:10020800AA93A39AA49AA59AA69AA29AA09AA19AFE
:10021800AA98A898A9987880E881E058E0936F0296
:10022800E881E054E0937002A4E1B0E00E943A0152
:1002380017D016D015D0A0E275DF81E28A95F1F7C4
:10024800A8E295DFA4E093DFA5E891DFA6E08FDFC1
:10025800A7DF219608958BDFA3E0B0E00C943A0164
:10026800A0E360DF81E28A95F1F70895109639F0EE
:100278008AEF90E00197F1F7A8951197C9F70895CB
:00000001FF
